:020000040800F2
:10000000902B002045010008D90F0008DB0F0008E5
:10001000DF0F0008E30F0008E70F000800000000F2
:10002000000000000000000000000000EB0F0008CE
:10003000ED0F000800000000EF0F0008F10F0008AE
:100040005F0100085F0100085F0100085F01000810
:100050005F0100085F0100085F0100085F01000800
:100060005F0100085F0100085F0100085F010008F0
:100070005F0100085F0100085F0100085F010008E0
:100080005F0100085F0100085F0100085F010008D0
:100090005F0100085F0100085F0100085F010008C0
:1000A0005F0100085F0100085F0100085F010008B0
:1000B0005F0100085F0100085F0100085F010008A0
:1000C0005F0100085F0100085F0100085F01000890
:1000D0005F0100085F0100085F0100085F01000880
:1000E0005F0100085F0100085F0100085F01000870
:1000F0005F0100085F0100085F0100085F01000860
:100100005F0100085F0100085F0100085F0100084F
:100110005F0100085F0100085F0100085F0100083F
:100120005F0100085F0100085F0100085F0100082F
:10013000DFF80CD002F0CAFE00480047510E00085C
:10014000902B00200648804706480047FEE7FEE760
:10015000FEE7FEE7FEE7FEE7FEE7FEE7FEE7FEE777
:1001600047020008310100080CB500200190009002
:100170006C48006840F480306A49086000BF6948F4
:10018000006800F4003000900198401C0190009835
:1001900018B90198B0F5A06FF1D16248006800F479
:1001A000003010B10120009001E000200090009884
:1001B000012843D15C48006840F010005A490860AB
:1001C0000846006820F0030008600846006840F018
:1001D0000200086053484068524948600846406839
:1001E00048600846406840F48060486008464068BF
:1001F00020F47C1048600846406840F4E8104860ED
:100200000846006840F08070086000BF45480068FC
:1002100000F000700028F9D04248406820F0030048
:10022000404948600846406840F00200486000BF0E
:100230003C48406800F00C000828F9D10CBD10B50E
:10024000FFF792FF10BD10B53648006840F001007E
:1002500034490860084640683449084031494860DC
:1002600008460068324908402E4908600846006880
:1002700020F4802008600846406820F4FE004860B2
:100280004FF41F008860FFF7DAFF4FF00060294944
:10029000086010BD10B5002100200022214B5B68D2
:1002A00003F00C0121B1042906D0082928D107E068
:1002B000214B224C236027E01F4B204C236023E07E
:1002C000184B5B6803F47010164B5B6803F48032C4
:1002D000022303EB904022B9194B4343174C236090
:1002E0000DE0104B5B6803F4003323B1144B434320
:1002F000124C236003E0104B4343104C236003E097
:100300000D4B0E4C236000BF00BF064B5B68C3F370
:1003100003130C4CE15C094B1B68CB40074C23607A
:1003200010BD000000100240002002400000FFF855
:10033000FFFFF6FE08ED00E000127A00000000204A
:1003400000093D000400002010B50446CC4884425A
:1003500008D10121042000F02DFB0021042000F031
:1003600029FB46E0C748844208D10121082000F05B
:1003700021FB0021082000F01DFB3AE0C248844226
:1003800008D10121102000F015FB0021102000F001
:1003900011FB2EE0BD48844208D10121202000F04D
:1003A00009FB0021202000F005FB22E0B848844230
:1003B00008D10121402000F0FDFA0021402000F08A
:1003C000F9FA16E0B348844208D10121802000F0F8
:1003D000F1FA0021802000F0EDFA0AE0AE488442F4
:1003E00007D10121801500F0E5FA0021A01500F0E9
:1003F000E1FA10BD10B50121084600F0DBFA00213A
:10040000012000F0D7FA10BD2DE9F0410246002589
:100410000026002000230024002791F803C00CF0E0
:100420000F0591F803C00CF0100CBCF1000F03D0C5
:1004300091F802C04CEA050591F800C0BCF1000F2C
:1004400031D0146800202BE04FF0010C0CFA00F3BF
:10045000B1F800C00CEA03069E4220D183004FF0A1
:100460000F0C0CFA03F7BC4305FA03FC4CEA040436
:1004700091F803C0BCF1280F06D14FF0010C0CFA23
:1004800000FCC2F814C00AE091F803C0BCF1480FA8
:1004900005D14FF0010C0CFA00FCC2F810C0401C52
:1004A0000828D1D31460B1F800C0BCF1FF0F34DDCF
:1004B000546800202EE000F1080C4FF0010808FA03
:1004C0000CF3B1F800C00CEA03069E4221D1830070
:1004D0004FF00F0C0CFA03F7BC4305FA03FC4CEA8F
:1004E000040491F803C0BCF1280F05D100F1080CF9
:1004F00008FA0CF8C2F8148091F803C0BCF1480F58
:1005000007D100F1080C4FF0010808FA0CF8C2F806
:100510001080401C0828CED35460BDE8F0814FF60F
:10052000FF710180022181700421C1707047024671
:10053000002093680B400BB1012000E000207047C1
:100540000146886880B2704702460020D3680B409D
:100550000BB1012000E0002070470146C86880B25E
:10056000704701617047416170470AB1016100E065
:1005700041617047C16070474FF480320A43826125
:100580008161826182698269704702460020434B23
:1005900018684FF68073184040EA021008433F4B3A
:1005A000186070473E49C8617047F0B50A4600239D
:1005B00000240021002500F00046B6F1004F02D1D2
:1005C000364EF16901E0354E7168C0F3034583B2E0
:1005D00000F44016B6F5401F08D121F070612F4E8F
:1005E000766826F070662D4F7E6012E000F480166B
:1005F000B6F5801F06D1032606FA05F4A14341F0A3
:10060000706106E0460D360103FA06F6B14341F08B
:10061000706122B1460D360103FA06F6314300F04F
:100620000046B6F1004F02D11C4EF16101E01B4EB5
:100630007160F0BD30B500228B071C0F0F2303FA49
:1006400004F2164B08338C1053F824309343134CA8
:1006500008348D1044F8253023468C1053F824308C
:100660008C07240F00FA04F423430C4C08348D103B
:1006700044F8253030BD0A49DC310860704700007D
:1006800000080140000C014000100140001401402E
:1006900000180140001C0140002001400000014002
:1006A00000002042DF48006840F00100DD4908609A
:1006B00008464068DC490840DA4948600846006856
:1006C000DA490840D74908600846006820F48020CD
:1006D00008600846406820F4FE0048604FF41F00A0
:1006E00088607047CF49096821F48031CD4A116094
:1006F0001146096821F480211160B0F5803F03D0D4
:10070000B0F5802F0ED106E0C649096841F480316A
:10071000C44A116007E0C349096841F4A021C14AF5
:10072000116000E000BF00BF704710B50146002215
:10073000002300204A11012A02D1BA4C236806E0A6
:10074000022A02D1B74C236A01E0B64C636A01F079
:100750001F02012494401C400CB1012000E0002045
:1007600010BD38B5002000900024002500BF3120C6
:10077000FFF7DBFF05460098401C00900098B0F59D
:10078000A06F01D0002DF2D03120FFF7CEFF08B1CD
:10079000012400E00024204638BD01460020A14A83
:1007A000106820F0F80040EAC10010607047A049CE
:1007B00008607047024600209A4B586820F47C106D
:1007C00042EA01031843974B5860704798490866FE
:1007D000704701460020934A506820F00300084308
:1007E000506070478F48406800F00C007047014629
:1007F00000208C4A506820F0F00008435060704799
:1008000001460020874A506820F4E06008435060A9
:10081000704701460020834A506820F4605040EA47
:10082000C1005060704729B17E4A527A02437D4B25
:100830005A7204E07B4A527A82437A4B5A7270476A
:100840007B49D8310860704701460020754A5068DE
:1008500020F440400843506070470021714A203224
:100860001170704A82F82010012802D004280AD1A1
:1008700004E001216B4A2032117005E00521694A2C
:100880002032117000E000BF00BF70476949086066
:1008900070476449096A0143624A116270476549B9
:1008A00044390860704730B500210022002400233D
:1008B0005C4D6D6805F00C0121B1042905D00829B3
:1008C00023D105E05C4D056022E05B4D05601FE033
:1008D000544D6D6805F47012524D6D6805F4803406
:1008E000022505EB92421CB9544D554305600BE0BF
:1008F0004C4D6D6805F400351DB1504D55430560F4
:1009000002E04D4D5543056002E04B4D056000BFD0
:1009100000BF444D6D6805F0F0010909484D6B5C5E
:100920000568DD4045603F4D6D6805F4E061090AEA
:10093000434D6B5C4568DD4085603A4D6D6805F45C
:100940006051C90A3E4D6B5C4568DD40C560354D60
:100950006D6805F44041890B3A4D6B5CC568B5FB89
:10096000F3F5056130BD29B12E4A526902432D4B82
:100970005A6104E02B4A526982432A4B5A617047FC
:1009800029B1284A92690243264B9A6104E0254A1C
:1009900092698243234B9A61704729B1214AD269F7
:1009A0000243204BDA6104E01E4AD26982431D4BA8
:1009B000DA61704729B11B4AD2680243194BDA60E9
:1009C00004E0184AD2688243164BDA60704729B1B6
:1009D000144A12690243134B1A6104E0114A126966
:1009E0008243104B1A6170471249403908607047C2
:1009F0000F49C86470470B49C87170470948406A7D
:100A000040F0807007494862704701460020054A5F
:100A100092680A400AB1012000E0002070470149B5
:100A200088727047001002400000FFF8FFFFF6FEDA
:100A3000000042428004424200127A0000093D0058
:100A4000140000202400002010B50446FB48844216
:100A500009D101218803FFF7ADFF00214FF4804049
:100A6000FFF7A8FF32E0F648844209D1012148048B
:100A7000FFF7ADFF00214FF40030FFF7A8FF25E09E
:100A8000F048844209D101218804FFF7A0FF00212A
:100A90004FF48020FFF79BFF18E0EB48844209D118
:100AA0000121C804FFF793FF00214FF40020FFF756
:100AB0008EFF0BE0E548844208D101210805FFF7CD
:100AC00086FF00214FF48010FFF781FF10BD2DE954
:100AD000F04786B005460E460024A24600BFA14658
:100AE0000027B08900B100BF2F462C8A4CF6FF705A
:100AF0000440F08804432C82AC894EF6F310044085
:100B0000B08831890843718908430443AC81AC8AB9
:100B10004FF6FF400440B0890443AC8201A8FFF7C0
:100B2000C2FEC648874202D1DDF810A001E0DDF820
:100B30000CA0A88900F4004040B10AEBCA0000EB09
:100B40000A1031684900B0FBF1F807E00AEBCA006F
:100B500000EB0A1031688900B0FBF1F86420B8FBA3
:100B6000F0F004012009642101FB1089A88900F438
:100B7000004040B1322000EBC900B0FBF1F000F0C2
:100B80000700044308E0322000EB09106421B0FBA9
:100B9000F1F000F00F0004432C8106B0BDE8F087AF
:100BA0004FF41651016000218180C18001810C2128
:100BB000418100218181704710B502460020108AD2
:100BC0004FF2FF0318400B884C8823438C88234343
:100BD000CC8823431843108210BD0021018041803E
:100BE0008180C180704721B1828942F400528281A4
:100BF00004E082894DF6FF731A4082817047F0B598
:100C00000346002400260025002040F66A17B9425A
:100C100000D100BF1846C1F3421401F01F0601279E
:100C200007FA06F5012C01D10C3004E0022C01D1A9
:100C3000103000E014301AB107682F43076002E05B
:100C40000768AF430760F0BD1AB1838A0B43838204
:100C500002E0838A8B4383827047028A4FF6F073E7
:100C60001A400282028A0A430282704782894FF246
:100C7000FF731A40828182890A438281704721B1C1
:100C8000828942F00202828104E082894FF6FD737C
:100C90001A4082817047028A4FF6DF731A4002823F
:100CA000028A0A430282704721B1028A42F48042DA
:100CB000028204E0028A4BF6FF731A4002827047F8
:100CC000C1F308028280704701468888C0F308009B
:100CD0007047818941F0010181817047028BD2B256
:100CE0000283028B42EA012202837047028B02F4E4
:100CF0007F420283028B0A430283704721B1828ABA
:100D000042F02002828204E0828A4FF6DF731A40AA
:100D10008282704721B1828A42F01002828204E00E
:100D2000828A4FF6EF731A408282704721B1828A1D
:100D300042F00802828204E0828A4FF6F7731A407A
:100D40008282704721B1828942F40042828103E0AD
:100D50008289C2F30E028281704721B1828A42F4F5
:100D60000062828204E0828A4FF2FF731A4082821C
:100D70007047828A4FF6FB731A408282828A0A4346
:100D80008282704721B1828A42F00202828204E0AC
:100D9000828A4FF6FD731A40828270470246002015
:100DA000B1F5007F00D100BF13880B400BB10120CB
:100DB00000E00020704701F40072B2F5007F00D11E
:100DC00000BFCA430280704770B50246002400236A
:100DD0000025002040F66A16B14200D100BFC1F3E1
:100DE000421501F01F03012606FA03F3012D02D17B
:100DF0009689334006E0022D02D1168A334001E085
:100E0000968A33400C12012606FA04F41688344000
:100E100013B10CB1012000E0002070BD10B500221C
:100E2000002340F66A14A14200D100BF0A12012437
:100E30009440A3B2DC43048010BD000000380140A0
:100E40000044004000480040004C0040005000407A
:100E50000EB500F00BF900F07FFB01F0E9FA00F0AD
:100E6000E0FC00F051FB00F0D0F900F0F2F960B9BD
:100E700038A002F04DF820203E4908600120091FEB
:100E800008600220086000BFFEE700F01FF94FF085
:100E9000E020006940F001004FF0E021086157E0D8
:100EA00035480068002853D000BF34480068012846
:100EB000FBD03349334801F043FA3248006801F06F
:100EC000C7FE054601F037FC044601F0F0FE2E494E
:100ED00008602B48006801F0BBFE054601F02BFCC2
:100EE000044601F0E4FE2949086000F0A2FC28A0B5
:100EF00002F00EF82848407927490979264AD27825
:100F0000CDE900210290244883784278017823A01B
:100F100001F0FEFF2748B0F90430B0F90220B0F923
:100F2000001025A001F0F4FF2748B0F90430B0F913
:100F30000220B0F9001020A001F0EAFF1348026877
:100F40001148016821A001F0E3FF00200A49086070
:100F5000A6E700000D0AC3BBD3D0BCECB2E2B5BD1E
:100F60004D505536303530B4ABB8D0C6F7A3A10DCF
:100F70000A000000140C0140500000202001214212
:100F80002C00002028000020300000203400002029
:100F90003120202020200000540000203230256421
:100FA0002D25642D25642025642D25642D256420A0
:100FB00020200000380000202534642025346420DF
:100FC00025346420200000003E00002025642020FD
:100FD000202564200D0A0000704700BFFEE700BF17
:100FE000FEE700BFFEE700BFFEE7704770477047AF
:100FF00010B5002407E0174850F82400401C15499C
:1010000041F82400641C022CF5DB12480068B0F59E
:101010007A7F08D300200F4908600F48006880F0ED
:1010200001000D4908600B484068052811D30020D5
:10103000084948600948006858B9094800F021F992
:10104000084800F03EF9084800F06BF90120034918
:10105000086010BD480000200C0C0140500000202A
:10106000380000203E0000204400002008B5012187
:101070000820FFF785FC2020ADF8000010208DF837
:10108000030003208DF8020069460F48FFF7BCF902
:101090000120ADF8000069460B48FFF7B5F90220C2
:1010A000ADF8000069460848FFF7AEF92021064870
:1010B000FFF757FA01210448FFF753FA02210248CB
:1010C000FFF74FFA08BD0000000C014030B52A4878
:1010D00000684FF47A72B0FBF2F1B1F1807F01D376
:1010E00001201DE021F07F40401E4FF0E0225061C2
:1010F00050170F22002807DA13071D0E1F4B00F0B0
:101100000F04241F1D5503E013071C0E1C4B1C5419
:1011100000BF00204FF0E022906107201061002006
:1011200008B100BFFEE74FF0E020006940F0010089
:101130004FF0E021086130BD002106E00A2100BF28
:101140000A00A1F1010399B2FAD10200A0F1010352
:1011500098B2F3D17047002107E042F6E06100BF8A
:101160000A00A1F1010399B2FAD10200A0F1010332
:1011700098B2F2D1704700000000002018ED00E0A6
:1011800000E400E070B505460C4600F008F9D020F8
:1011900000F028F900F09CF9284600F023F900F04F
:1011A00097F9204600F01EF900F092F900F00CF9D2
:1011B00070BD2DE9F04107460C46154600F0EFF8EA
:1011C000D02000F00FF900F083F9384600F00AF95A
:1011D00000F07EF900F0E3F8D12000F003F900F010
:1011E00077F9002606E0012000F04CF92070641C1D
:1011F000701CC6B2681EB042F5DC002000F042F957
:10120000207000F0E1F8BDE8F08170B50024002501
:1012100000BF06E0002500E06D1CB5F57A7FFBDB22
:10122000641CB4F57A7FF5DB00216B20FFF7AAFF81
:1012300007211920FFF7A6FF06211A20FFF7A2FFBA
:1012400000211C20FFF79EFF18211B20FFF79AFFAB
:1012500070BD08B500200090012269467520FFF797
:10126000A8FF9DF80000682804D0404801F050FE17
:10127000002008BD9DF800103DA001F049FE0120AE
:10128000F7E71CB50446062269463B20FFF791FFAD
:101290009DF801009DF8001040EA012000B2208076
:1012A0009DF803009DF8021040EA012000B2608022
:1012B0009DF805009DF8041040EA012000B2A080CE
:1012C0001CBD1CB50446062269464320FFF771FF8A
:1012D0009DF801009DF8001040EA012000B2208036
:1012E0009DF803009DF8021040EA012000B26080E2
:1012F0009DF805009DF8041040EA012000B2A0808E
:101300001CBD38B50446022269464120FFF751FF53
:101310009DF801009DF8001040EA012000B22080F5
:1013200038BD2DE9F84F8246022269464120FFF779
:1013300040FF9DF801009DF8001040EA01200FFADF
:1013400080FB584601F089FC804600220D4B01F0DD
:1013500010FC06460C4A0D4B01F0F2FA044601F06F
:10136000CDFCCAF80000BDE8F88F00008833000803
:101370004D505536303530204944203D2025640DF0
:101380000A00000000407540A4703D0AD743424067
:10139000002001E0411CC8B20A28FBDB704710B5F1
:1013A00080206C49086040200860FFF7F1FF802032
:1013B0006849091D0860FFF7EBFF40206549091DDA
:1013C0000860FFF7E5FF10BD10B580206149091DD9
:1013D00008604020091F0860FFF7DAFF80205D49A0
:1013E000086010BD70B50446002520E004F08000C0
:1013F00018B180205749086003E080205549091D35
:101400000860FFF7C5FF402052490860FFF7C0FFA2
:1014100040205049091D0860072D02D18020091F76
:1014200008606006040EFFF7B3FF681CC5B2082D04
:10143000DCDB70BD10B580204649091D0860FFF750
:10144000A7FF402043490860FFF7A2FF4020414921
:10145000091D0860FFF79CFF80203E49086010BD11
:1014600010B580203B490860FFF792FF40203949C2
:101470000860FFF78DFF40203649091D0860FFF71F
:1014800087FF10BD70B505460024002616E06006F3
:10149000040E40202F490860FFF77AFF2D480838D6
:1014A000006800F0800008B1601CC4B240202949E7
:1014B000091D0860FFF76CFF701CC6B2082EE6DB42
:1014C00015B9FFF7CDFF01E0FFF7B4FF204670BD6F
:1014D00010B580201F490860FFF75AFF40201D49C2
:1014E0000860FFF755FF1B480838006800F08000CF
:1014F00008B1012400E0002440201649091D0860BD
:10150000FFF746FF204610BD08B501210820FFF770
:1015100037FAC020ADF8000003208DF80200142037
:101520008DF8030069460B481038FEF76DFFFFF792
:101530004BFF08BD70B50446FFF7E6FFFFF72FFF2E
:101540002046FFF74FFFFFF7C3FF0546FFF73CFFBD
:10155000284670BD100C014000B585B00121042063
:10156000FFF70EFA01218803FFF70AFA4FF4007023
:10157000ADF8100018208DF8130003208DF812002C
:1015800004A92248FEF740FF4FF48060ADF8100038
:1015900004208DF8130004A91C48FEF735FF4FF412
:1015A000E13000900020ADF80400ADF80600ADF881
:1015B0000800ADF80C000C20ADF80A00694614488C
:1015C000FFF785FA01211248FFF70DFB05B000BDBA
:1015D00070B504460D46E1B20D48FFF771FB00BF40
:1015E00080210B48FFF7DAFB0028F9D0204670BDB8
:1015F00010B5044600BF20210548FFF7CFFB0028A7
:10160000F9D00348FFF760FB10BD0000000801405F
:101610000038014008B501210820FFF7B1F94FF467
:101620008040ADF8000048208DF8030069469548D9
:10163000FEF7EAFE08BD08B501210820FFF7A0F972
:101640004FF48040ADF8000010208DF80300032017
:101650008DF8020069468B48FEF7D6FE08BD08B536
:1016600001210820FFF78CF901210820FFF788F9F4
:1016700001210820FFF784F94FF40050ADF8000075
:1016800010208DF8030003208DF8020069467D4884
:10169000FEF7BAFE4FF48040ADF8000010208DF840
:1016A000030003208DF8020069467648FEF7ACFE81
:1016B0004FF40040ADF8000010208DF80300032027
:1016C0008DF8020069466F48FEF79EFE08BD70B5B2
:1016D0000446FFF7B0FF00251AE004F0010028B12E
:1016E0004FF480416748FEF73CFF04E04FF480412F
:1016F0006448FEF738FF64104FF400516148FEF76C
:1017000030FF4FF400515F48FEF72DFF681CC5B253
:10171000082DE2DB70BD70B505460C464FF4004164
:101720005848FEF720FF4FF400515648FEF71BFFC4
:101730004FF400415348FEF714FF2846FFF7C7FF58
:101740002046FFF7C4FF4FF400414E48FEF70BFF61
:1017500070BD70B50024FFF75DFF002515E0641033
:101760004FF480414748FEF7E2FE012801D144F0E2
:1017700080044FF400514348FEF7F3FE4FF400514C
:101780004048FEF7F0FE681CC5B2082DE7DB204696
:1017900070BD70B5044600254FF400413948FEF78E
:1017A000E2FE4FF400513748FEF7DDFE4FF40041F2
:1017B0003448FEF7D6FE2046FFF789FFFFF7C9FF42
:1017C00005464FF400412F48FEF7CDFE284670BD78
:1017D00010B5024600200BE0135C03F00F03145C0D
:1017E000241104EB840403EB44031354431CD8B2C8
:1017F0008842F1DB10BD30B5024600200EE0135CDC
:101800000A2493FBF4F504FB1533145C0A2594FBBE
:10181000F5F443EA04131354431CD8B28842EEDBB8
:1018200030BD10B5FFF71BFF07211748FFF7E3FF97
:1018300010BD10B58D20FFF7ACFF1349087089204B
:10184000FFF7A7FF104948708720FFF7A2FF0E4956
:1018500088708520FFF79DFF0B49C8708320FFF734
:1018600098FF094908718120FFF793FF06494871E5
:101870008B20FFF78EFF0449887107210248FFF78C
:10188000A7FF10BD000C01405400002030B50C46ED
:10189000012213E050F82230114605E04D1E50F8A9
:1018A000255040F82150491E002904DD4D1E50F8F6
:1018B00025509D42F2DC40F82130521CA242E9DB67
:1018C00030BDF0B503461546012217E051F822401D
:1018D000104605E0461E51F8266041F82060401E83
:1018E000002808DD53F82470461E51F8266053F88E
:1018F0002660B742EEDC41F82040521CAA42E5DBEC
:10190000F0BD2DE9F04F05460C4692469846294613
:1019100050462268FFF7D5FF4FF0FF3621E0D4F89C
:1019200000B0701C2060771C18E055F82710701C60
:1019300010B94FF0FF3001E055F82600A1EB000987
:10194000C14503DCC8F10000814506DA55F82710CF
:101950002268501C206045F822107F1C5F45E4DBA4
:10196000761C2068B042DADC28462168FFF78EFF3B
:10197000BDE8F08FF0B505461C46059E0120002706
:101980000F6030E052F82070B7422BDD52F820C0D3
:10199000471E52F82770BC4524DD012300E05B1C84
:1019A000C718A74207DA52F8207000EB030C52F870
:1019B0002CC06745F3D052F8207000EB030C52F8AE
:1019C0002CC067450CDD0F680F2F09DAD1F800C075
:1019D0000CF101070F6045F82C005F1C384402E051
:1019E000184400E0401C671E8742CBDCF0BD2DE9A7
:1019F000F84705460C4616461F46DDE90A9ADDF80B
:101A000024803B46324621462846CDF80080FFF729
:101A1000B1FF4B46324621462846FFF772FF206849
:101A2000504501DA206800E050462060BDE8F887A4
:101A30002DE9FF4FC6B08846994600204590002406
:101A400006E0469850F82410459808444590641CD8
:101A50004445F6DB4598B0FBF8F04590002408E0DB
:101A6000469850F824104598081AFE4941F8240079
:101A7000641C4445F4DB002417E0FA4850F82410B5
:101A80000246601C52F820000144A01C52F82000BD
:101A90000144E01C52F820000F183846F91707EBF4
:101AA0009171891042F82410641CB4F5F87FE4DBCE
:101AB00000240AE0EB49601C51F8200051F8241082
:101AC000401AE94941F82400641CB4F5F77FF1DDC0
:101AD00000240EE0E44951F824200B46611C53F821
:101AE0002110501800EBD07149101A4642F824100A
:101AF000641CB4F5F77FEDDB00251BE0002043906C
:101B00002C460BE0D84850F82410601BD74A32F816
:101B10001020439801FB12004390641C681D84420E
:101B2000F0DB40F27A41439890FBF1F0CE4941F866
:101B300025006D1CB5F5F47FE0DD00204190002408
:101B400010E0C94850F82400002803DDC64850F8CA
:101B5000240003E0C44850F824004042419908445E
:101B60004190641CB4F5F77FEBDD40F2EF11419832
:101B700090FBF1F0419005210822419840F2EF13CB
:101B8000CDE901210090B84A40A912A8FFF72FFF24
:101B9000002011904098022821DB01240BE012A8BC
:101BA00050F82410601E12AA52F82000091A119849
:101BB00008441190641C40988442F0DB4098401E19
:101BC000119991FBF0F0119041F27071119891FB15
:101BD000F0F15498016001215598017005E0A44985
:101BE00054980160002155980170002407E012A864
:101BF00050F82400801C30A941F82400641C40984F
:101C00008442F4DB00240CE0469850F82400954907
:101C100041F82400489850F82400964941F82400DF
:101C2000641C4445F0DB0020429000242DE001209C
:101C3000449030A850F824A04FF080703F900AF1F3
:101C40000500B0F5F77F1FDC0A3800281CDD0546CB
:101C500011E0844850F825103F9881420ADA4498F0
:101C600008B1002044907F4850F825003F9021A8FB
:101C700040F824506D1C0AF105008542E9DB4498C8
:101C800010B94298401C4290641C40988442CEDBBC
:101C90004298022808DA7648C9F8000000215398D3
:101CA00001704AB0BDE8F08F00242EE06D4951F874
:101CB00024200B46611C53F821100A44A11C53F840
:101CC00021100A44E11C53F821105018C11700EBF1
:101CD000917189101A4642F82410664951F824205F
:101CE0000B46611C53F821100A44A11C53F8211023
:101CF0000A44E11C53F821105018C11700EB9171F0
:101D000089101A4642F82410641CB4F5F87FCDDB24
:101D1000002004900026002404E0002005A941F8DA
:101D20002400641C052CF8DB00240DE021A850F8E9
:101D30002400B0F5FA7F06DD4D48C9F80000002107
:101D400053980170ADE7641C42988442EEDB002496
:101D5000AEE04FF07F400D900C9021A9601C51F82F
:101D6000200051F82410401A0A2879DD21A850F8E3
:101D7000245016E03B4850F825100C98814204DDB1
:101D8000384850F825000C900A953A4850F825102C
:101D90000D98814204DD374850F825000D900B95D1
:101DA0006D1C21A9601C51F82000A842E2DC601CD7
:101DB00051F820002F4951F8200021A951F8241092
:101DC0002C4A52F82110401A21A951F824200B99CD
:101DD000891A4843109021A9601C51F8200051F83D
:101DE0002410411A109890FBF1F021A951F8241009
:101DF000204A52F821100844109011460B9851F8CF
:101E000020101098081A109021A9601C51F8200089
:101E1000144951F8200021A951F82410114A52F810
:101E20002110401A21A951F824200A99891A4843FF
:101E30000F9021A9601C51F8200051F82410411A7C
:101E40000F9890FBF1F021A951F82410054A52F89F
:101E5000211008440F9011460B9851F820100BE008
:101E600025E0000050080020900000209232000879
:101E700019FCFFFF201000200F98081A0F900C99F2
:101E800010984843C01103900D990F984843C7110B
:101E9000002F0CDD052E0ADA039840B16421039867
:101EA000484390FBF7F005A941F82600761C641C16
:101EB0004298401EA0423FF74CAF314605A8FFF7BD
:101EC000E5FC304606EBD0714FEA610BBBF1010F28
:101ED0000CDDABF1010105AA52F8211052F82B20BC
:101EE000881800EBD0714910049103E005A850F860
:101EF0002B000490049802280DDD0498B8280ADA13
:101F000009490498085C0E900E98C9F80000012158
:101F10005398017005E00548C9F800000021539866
:101F2000017000BFBDE60000D032000819FCFFFFC1
:101F300008B501210820FEF723FD4FF44060ADF8FD
:101F4000000010208DF8030003208DF80200694680
:101F5000F748FEF759FA4FF48070ADF800000420FE
:101F60008DF803006946F348FEF74EFA0120F24966
:101F70000860F249C1F8AC0108BD10B5EC48001D7D
:101F8000006820F47040EA49091D086008460068AE
:101F900040F4405008600120E749091D0860E74906
:101FA000C1F8A8010420FFF7C7F80020E249091D85
:101FB00008600420FFF7C0F80020E049C1F8A8013C
:101FC00010BD10B5DA48001D006820F47040D849F3
:101FD000091D08600846006840F440500860002071
:101FE000D5490860D549C1F8AC010420FFF7A4F831
:101FF0000120D1490860D149C1F8AC010420FFF7A4
:102000009BF810BD10B50024C948001D006820F4DD
:102010007040C749091D08600846006840F4004048
:1020200008600120C449091D0860FFF785F80120F8
:10203000C249C1F8A801FFF77FF807E0601CC4B2ED
:10204000FA2C03DDFFF7BDFF012010BDBA487C3834
:1020500000680028F2D1B849086000BFF5E710B564
:102060000020B5490860B248001D006820F47040A7
:10207000AF49091D08600846006840F440500860F8
:102080000020AE49C1F8AC010220FFF755F801204D
:10209000A94908600220FFF74FF80020A749C1F8BE
:1020A000A80110BD10B50020A3490860A048001D7C
:1020B000006820F470409E49091D086008460068C9
:1020C00040F44050086001209C49C1F8AC01022056
:1020D000FFF732F80120984908600220FFF72CF83A
:1020E00000209649C1F8A80110BD70B5044690487B
:1020F000001D006820F470408D49091D08600846E5
:10210000006840F44050086000208B4908600025BA
:1021100017E0E0098849091D08606006040E0220E6
:10212000FFF70AF801208549C1F8A8010220FFF74E
:1021300003F80020804908600220FEF7FDFF681CBC
:10214000C5B2082DE5DB70BD70B5054600247848A2
:10215000001D006820F470407549091D086008469C
:10216000006840F400400860002616E00020724934
:1021700008600220FEF7E0FF01207049C1F8A801C5
:102180006006040E6C487C38006808B1601CC4B25C
:102190000120FEF7D1FF701CC6B2082EE6DB15B198
:1021A000FFF780FF01E0FFF75AFF204670BD08B53A
:1021B00001210420FEF7E4FB4FF48070ADF800002D
:1021C00004208DF8030003208DF802006946594869
:1021D000FEF71AF908BD2DE9F04105460C46FFF758
:1021E000CCFEAE20FFF781FFFFF70CFF0646284626
:1021F000FFF77BFFFFF706FF07462046FFF775FF57
:10220000FFF700FF8046FFF7DCFE1EB917B9B8F1F3
:10221000000F03D04FF0FF30BDE8F0810020FBE756
:102220002DE9F04105460C46FFF7A7FEAE20FFF76B
:102230005CFFFFF7E7FE06462846FFF756FFFFF76D
:10224000E1FE0746FFF799FEAF20FFF74EFFFFF7CD
:10225000D9FE80460020FFF777FF2070FFF7B1FE20
:102260001EB917B9B8F1000F03D04FF0FF30BDE829
:10227000F0810020FBE710B5FFF799FFC021022095
:10228000FFF7A9FF10B14FF0FF3010BD0021032070
:10229000FFF7A1FF10B14FF0FF30F6E70021042057
:1022A000FFF799FF10B14FF0FF30EEE70021052056
:1022B000FFF791FF10B14FF0FF30E6E70021062055
:1022C000FFF789FF10B14FF0FF30DEE70F21082044
:1022D000FFF781FF10B14FF0FF30D6E7032109204F
:1022E000FFF779FF10B14FF0FF30CEE727210A202A
:1022F000FFF771FF10B14FF0FF30C6E724210C202B
:10230000FFF769FF10B14FF0FF30BEE724210D2029
:10231000FFF761FF10B14FF0FF30B6E77F211020CB
:10232000FFF759FF10B14FF0FF30AEE70020ACE7E8
:10233000000C014000080140A88121420080214298
:102340002DE9FE4304460D4600202060286002A9C6
:10235000FFF766FF02A90120FFF762FF07208DF853
:102360000000FFF70AFEAE20FFF7BFFEFFF74AFEB0
:1023700007469DF80000FFF7B8FEFFF743FE8046D2
:10238000FFF7FBFDAF20FFF7B0FEFFF73BFE8146F6
:102390000020FFF7D9FE064636042068304420604E
:1023A0000020FFF7D1FE0646360220683044206048
:1023B0000020FFF7C9FE0646206830442060002058
:1023C000FFF7C2FE06463604286830442860002025
:1023D000FFF7BAFE0646360228683044286000201F
:1023E000FFF7B2FE0646FFF7ECFD28683044286090
:1023F0002068C0F3110020602868C0F31100286035
:102400002FB9B8F1000F02D1B9F1000F03D04FF08E
:10241000FF30BDE8FE830020FBE710B54021092016
:10242000FFF7D9FE10B14FF0FF3010BD0020FCE7E0
:102430000EB5FFF77DFDFFF7F0FF10B1D0A000F063
:1024400067FDD6490020FFF7EBFE10B1D4A000F0E5
:102450005FFDFFF710FF10B1DBA000F059FD002079
:10246000DF490860DF48E04908600020DF49086074
:102470004FF4FA70DE490860DEA000F049FD00204C
:10248000E04908604BE000BFDF4800680128FBD04E
:10249000DE4ADC4B1B6802EB8301DD4AD94B1B682B
:1024A00002EB8300FFF74CFFD948D649096850F882
:1024B0002100CD490968884206D2D548D14909682A
:1024C00050F82100C8490860D148CE49096850F841
:1024D0002100C6490968884206D9CD48C94909681A
:1024E00050F82100C1490860CAA000F011FDC84899
:1024F000C44A126850F82210C8A000F009FDC8A014
:1025000000F006FDC148BF4A126850F82210C6A06C
:1025100000F0FEFCBB480068401CBA490860B9489E
:102520000068B34909688842ADDBB948B549096814
:1025300050F82100BE490860BE48BF49BF4AC04BA1
:10254000CDE900210290B24AA9480168AF48FFF7DF
:102550006FFA0EBD3EB50020AA490860A148A24905
:1025600008600020A14908606420A64908603AE09C
:10257000A748A449096850F82110A24800686438A7
:10258000A34A42F82010A1489E49096850F821103A
:102590009C48006864389D4A42F820109C4899493C
:1025A000096850F8210090490968884206D2984885
:1025B0009449096850F821008B4908609448914972
:1025C000096850F8210089490968884206D990486D
:1025D0008C49096850F821008449086089480068DE
:1025E000401C8849086087480068B0F5FA7FBFDB67
:1025F0004FF4C8708349086089E082480068401E33
:10260000834951F820008A49086000BF7E4800686D
:102610000128FBD07D4A7B4B1B6802EB83017C4A7F
:10262000784B1B6802EB8300FFF78AFE78487549F8
:10263000096850F821007E490968884231D97449F7
:10264000704A126851F82210794A1268881A00F00C
:10265000FFFA7C49086065490968634A1268881A6C
:1026600000F0F6FA044621467648006800F02AF9A0
:102670007449086074497348006800F0F1F87149C2
:1026800008600846006800F0F9FA55490968081A18
:102690005349086008460068002833DA00200860C3
:1026A00030E05B49574A126851F82210604A1268BC
:1026B000501A00F0CDFA634908604C4909684A4A4B
:1026C0001268881A00F0C4FA044621465D48006882
:1026D00000F0F8F85B4908605B495A48006800F070
:1026E000BFF8584908600846006800F0C7FA3C493E
:1026F000096808443A49086008460068FF2801DD77
:10270000FF2008603F480068401C3E4908603D4883
:102710000068B0F5FA7FFFF670AF46484649474A71
:10272000474BCDE900210290394A314801683748CA
:10273000FFF77EF93EBD2DE9FC5F83464348006804
:1027400000F0C9FA0746424A424B00F0A0F9814620
:102750008A46584600F0BFFA07463F4A3F4B00F012
:1027600096F94A465346CDE9000100F0E9F80546DE
:1027700000F0C4FA0446354804602046BDE8FC9FDA
:102780006D617833303130325F7265736574206605
:1027900061696C6564210D0A000000007100002071
:1027A000726561645F726567205245475F494E54A8
:1027B000525F5354415455535F31206661696C65D3
:1027C00064210D0A000000006D6178333031303231
:1027D0005F696E6974206661696C6564210D0A0029
:1027E00084000020FFFF0300740000207800002018
:1027F00060000020B2C9BCAF353030B8F6D1F9B1B5
:10280000BE0D0A008000002020012142F0170020A8
:10281000C01F00207265643D0000000025690000B3
:102820002C2069723D00000025690D0A000000009F
:102830007C000020700000206C0000206800002058
:10284000640000208800002000007F435C0000201E
:10285000CDCCCCCCCCCCEC3F9A9999999999B93FF5
:1028600080EA010210B502F00043400022D04A0085
:102870001FD0010E01EB1261C0F35600C2F35602E5
:1028800040F4000042F40002A0FB022000047F3963
:10289000140400D0401C50EA124001D44000491EEC
:1028A000C2B20C0604EBD010401C4008802A02D0B3
:1028B00003E0002010BD20F00100002900DA002014
:1028C000184310BD30B480EA010202F0004530F038
:1028D000004221F0004013D090B1C30DD40DC2F3DB
:1028E0001601C0F31600E41A41F4000140F400029E
:1028F0007D34914201D3641C00E04900002C02DACF
:1029000030BC002070474FF400000023914201D3F7
:10291000891A034340084FEA4101F7D151B191426E
:1029200002D14FF0004105E002D24FF0010101E079
:102930006FF0010103EBC450284430BC00F031BA01
:102940002DE9FE4F804681EA0300C00F0C4600903F
:1029500021F0004123F00045B8EB0200A94105D267
:102960004046214690461C460B46024623F0004056
:10297000104347D0270DC7F30A00C3F30A51029052
:10298000401A019040286BDAC3F3130040F4801B17
:102990000098924620B10023D2EB030A63EB0B0BA5
:1029A00001985946C0F14002504600F0D9F9064658
:1029B0000D4650465946019A00F0E1F910EB080027
:1029C0006141002487EA115284EAE7731A4340D038
:1029D000009A62B3019A012A4FEA075215DC001BE4
:1029E00061EB02014FF0004202EA0752CDE90042DA
:1029F000001C41F5801132462B4600F018FA03B056
:102A0000BDE8F08F40462146F9E7001B61EB02016B
:102A1000001C41F5801300185B412018A2F5001737
:102A200047EB030140EAD570B6196D4111E06D081E
:102A30004FEA360645EAC0754FEA0752001B61EBC4
:102A40000201001C41F5801149084FEA30000019CD
:102A5000514132462B4603B0BDE8F04F00F0D8B9E3
:102A60000098012240000023D0EB020263EBE073E8
:102A7000009821464FEAE074B8EB000061EB0401D6
:102A8000E9E783F000435BE781F0004158E72DE977
:102A9000FE4F81EA030404F0004421F00041009459
:102AA0004FF0000B23F0004350EA01045ED052EADD
:102AB00003045BD0C3F30A54C1F30A552C44A4F2B7
:102AC000F3340194A0FB0254C1F3130141F48011CB
:102AD000C3F3130343F4801301FB024400FB034ED2
:102AE000840A970A44EA815447EA8357A4FB07689B
:102AF00002958D0A05FB07854FEA932C04FB0C54C5
:102B00002705029D4FEA065847EA1637B5EB080538
:102B10006EEB070C870E920E47EA811742EA83128A
:102B2000A7FB0201B6EB0B0164EB00042B0D43EA9B
:102B30000C335E1844EB1C50DA465146E7FB0201A9
:102B4000C5F313044FEA0B3343EA14534FEA04323C
:102B5000019C43EA0603A4F10C040294009CCDE915
:102B600000B400F064F903B0BDE8F08F0020014626
:102B7000F9E72DE9F04D81EA030404F0004B21F060
:102B8000004514464FF0000A23F0004150EA0502C8
:102B900020D054EA01021DD0C5F30A570246C5F3FE
:102BA0001303C1F31300C1F30A5640F4801543F434
:102BB0008013A7EB0608101BD64608F2FD3873EB0E
:102BC000050002D308F1010801E092185B41B8F159
:102BD000000F03DA00200146BDE8F08D00204FF41D
:102BE0008011064684460EE0171B73EB050705D3DC
:102BF000121B63EB050306434CEA010C49084FEA3C
:102C0000300092185B4150EA0107EDD152EA03000F
:102C100012D082EA040083EA0501084305D0101BA4
:102C2000AB4106D20122002306E000224FF0004310
:102C300002E06FF0010253101AEB06004CEB085152
:102C400010EB0A0041EB0B01BDE8F04D00F0E0B8DD
:102C500096230022114600F0ADB80EB5C10F80EAF0
:102C6000E0700844CA07002140F233438DE80E00AB
:102C70000A460B4600F0DBF803B000BD00F000424E
:102C800020F00040C10DC0F3160040F400007F2981
:102C900001DA00207047962903DCC1F19601C84093
:102CA00001E096398840002AF4D04042704720F075
:102CB0000040C10DC0F3160040F400007F2901DA86
:102CC00000207047962903DCC1F19601C840704787
:102CD00096398840704700F0004230F000400AD03A
:102CE000C10D01F56071C0F3160042EA0151C2083E
:102CF00040071143704700200146704701F0004330
:102D000030B421F0004150EA010206D00A0DA2F5CC
:102D10006072C1F31301002A02DC30BC002070474E
:102D2000440F44EAC104C100E01830BC00EBC250BB
:102D300000F037B830B50B460146002020220124B0
:102D400009E021FA02F59D4205D303FA02F5491B79
:102D500004FA02F52844151EA2F10102F1DC30BD8F
:102D6000202A04DB203A00FA02F10020704791404B
:102D7000C2F1200320FA03F3194390407047202A40
:102D800006DBCB17203A41FA02F043EAE07306E093
:102D900041FA02F3D040C2F12002914008431946A3
:102DA00070470029A8BF7047401C490008BF20F0A9
:102DB0000100704710B4B0FA80FC00FA0CF050EA41
:102DC000010404BF10BC704749B1CCF1200421FAC2
:102DD00004F411FA0CF118BF012121430843A3EBBD
:102DE0000C01CB1D4FEA00614FEA102042BF0020CA
:102DF00010BC704700EBC35010440029A4BF10BCA6
:102E00007047401C490008BF20F0010010BC70470B
:102E100010B5141E73F1000408DA401C41F10001E2
:102E200092185B411A4301D120F0010010BD2DE939
:102E3000F04D92469B4611B1B1FA81F202E0B0FA30
:102E400080F220329046FFF78BFF04460F4640EA9F
:102E50000A0041EA0B0153465A46084313D0114673
:102E600053EA010019D0C8F14002504600F040F882
:102E700005460E46504659464246FFF771FF084345
:102E800005D0012004E020463946BDE8F08D002041
:102E9000054346EAE0762C4337430A986305E40A83
:102EA000A0EB08000022FD0A44EA47540A3002D58C
:102EB00000200146E9E7010510196941DDE90845EF
:102EC00000196941BDE8F04DA2E70000064C074D2E
:102ED00006E0E06840F0010394E8070098471034EA
:102EE000AC42F6D3FDF728F9D0330008F0330008E0
:102EF000202A04DB203A21FA02F00021704721FA4F
:102F000002F3D040C2F120029140084319467047B5
:102F10000FB4054B10B503A9044A029800F018F845
:102F200010BC5DF814FB0000D11500088C000020D7
:102F300002E008C8121F08C1002AFAD17047704782
:102F4000002001E001C1121F002AFBD170470000E0
:102F50002DE9FF4F8BB088460546002606E0252860
:102F60000BD0DDE90D1290476D1C761C28780028E7
:102F7000F5D10FB03046BDE8F08F0024A146A2463F
:102F80000122AE4900E0044315F8013F203B02FA5C
:102F900003F00842F7D128782A2810D06FF02F02CA
:102FA0002878A0F13001092915D809EB890102EB35
:102FB000410144F0020400EB01096D1CF0E758F8F0
:102FC000041B5FEA010903D544F40054C9F1000968
:102FD00044F002046D1C28782E2817D115F8010F33
:102FE00044F004042A280ED06FF02F022878A0F1B4
:102FF000300109290AD80AEB8A0102EB410100EBF2
:10300000010A6D1CF2E758F804AB6D1C28786C2897
:103010000FD006DC4C2817D068280DD06A2814D1B0
:1030200004E0742810D07A280FD10DE044F4001485
:103030000AE044F4801401E044F4401469788142C9
:1030400002D104F580146D1C6D1C2878692865D0A8
:1030500006DC00288DD0632827D0642806D15DE0E7
:103060006E2808D073282AD0752877D0DDE90D1294
:103070009047761CE0E0C4F30250022809D00328F0
:103080000DD0D8F8001004280DD00E6008F1040807
:10309000D2E0D8F80010F217C1E90062F6E7D8F8DC
:1030A00000100E80F2E70E70F0E718F8041B8DF8A0
:1030B000001000208DF80100EB46012003E058F8D5
:1030C00004BB4FF0FF3061074FF0000701D40AE066
:1030D0007F1C57450DDA8742FADB1BF807100029E1
:1030E000F6D106E07F1C8742FCDB1BF807100029A5
:1030F000F8D1DDE90D23A9EB07008146214600F058
:10310000B1F83044C61904E0DDE90D121BF8010BDB
:1031100090477F1EF8D22146484688E058F8040BB5
:10312000C4F302514FF00A0B032900D100B2042965
:1031300000D140B2002802DA40422D2102E02105F0
:1031400005D52B218DF82410012104E006E0E107CC
:1031500010D02021F6E708AF089113E058F8040BCF
:10316000C4F302514FF00A0B032900D180B20429A5
:1031700000D1C0B20021EEE75946FFF7DBFD303148
:1031800007F8011D0028F7D1ADEB070000F1200B77
:10319000600702D524F4803401E04FF0010ADA45DB
:1031A00002DDAAEB0B0000E00020824600EB0B01E1
:1031B00008980144A9EB01000A90E00306D4DDE978
:1031C0000D2321460A9800F04DF806444FF00009FF
:1031D00008E009A911F80900DDE90D12904709F18D
:1031E0000109761C08998945F3DBE0030CD5DDE97C
:1031F0000D2321460A9800F035F8064404E0DDE985
:103200000D1230209047761CBAF10001AAF1010A94
:10321000F5DC05E0DDE90D1217F8010B9047761C8F
:10322000BBF10001ABF1010BF4DC0A982146DDE9AA
:103230000D2300F005F806446D1C97E609280100EF
:103240002DE9F041044600251E461746880404D4A3
:1032500005E039462020B0476D1C641EF9D528468C
:10326000BDE8F0812DE9F041044600251E46904658
:10327000C80301D5302700E02027880404D505E0E5
:1032800041463846B0476D1C641EF9D52846BDE856
:10329000F08129001401000214012900000000003F
:1032A000000000000000000000000000000000001E
:1032B000000000000000000000000000000000000E
:1032C00000000000000000000000000000000000FE
:1032D0005F5F5F60606061616161616262626262E2
:1032E00063636363636363636464646464646464A6
:1032F0006464646464646464646464646363636392
:1033000063636363626262626262616161616060A1
:1033100060605F5F5F5E5E5E5D5D5D5C5C5C5B5BD5
:103320005A5A59595958585757565655555454532F
:103330005252515150504F4E4E4D4C4C4B4A4A49AF
:103340004848474645454443424241403F3E3E3D52
:103350003C3B3A39383837363534333231302F2E1A
:103360002D2C2B2A2928272625242322211F1E1D08
:103370001C1B1A19171615141311100F0E0C0B0A1B
:1033800009070605030201004D505536303530203F
:10339000646563746563746564206572726F72211D
:1033A0000D0ABCECB2E2B2BBB5BD4D50553630355E
:1033B00030C4A3BFE9A3ACC7EBBCECB2E9C4A3BF64
:1033C000E9D3EBBFAAB7A2B0E5B5C4BDD3CFDF0048
:1033D000F03300080000002090000000302F0008AB
:1033E0008034000890000020002B0000402F0008CF
:1033F00000A24A04000000000000000001020304D3
:10340000060708090000000001020304010203048A
:10341000060708090204060800000000000000007A
:10342000000000000000000000000000000000009C
:10343000000000000000000000000000000000008C
:103440000000000019031E0A230002000000000013
:10345000000000000000000000000000000000006C
:10346000000000000000000000000000000000005C
:10347000000000000000000000000000000000004C
:0400000508000131BD
:00000001FF
